{
  "contractName": "Manager",
  "abi": [
    {
      "inputs": [
        {
          "internalType": "address[14]",
          "name": "_teamAccounts",
          "type": "address[14]"
        }
      ],
      "stateMutability": "nonpayable",
      "type": "constructor"
    },
    {
      "inputs": [],
      "name": "alejandro",
      "outputs": [
        {
          "internalType": "address",
          "name": "",
          "type": "address"
        }
      ],
      "stateMutability": "view",
      "type": "function",
      "constant": true
    },
    {
      "inputs": [],
      "name": "alex",
      "outputs": [
        {
          "internalType": "address",
          "name": "",
          "type": "address"
        }
      ],
      "stateMutability": "view",
      "type": "function",
      "constant": true
    },
    {
      "inputs": [],
      "name": "ariel",
      "outputs": [
        {
          "internalType": "address",
          "name": "",
          "type": "address"
        }
      ],
      "stateMutability": "view",
      "type": "function",
      "constant": true
    },
    {
      "inputs": [],
      "name": "cristian",
      "outputs": [
        {
          "internalType": "address",
          "name": "",
          "type": "address"
        }
      ],
      "stateMutability": "view",
      "type": "function",
      "constant": true
    },
    {
      "inputs": [],
      "name": "daniela",
      "outputs": [
        {
          "internalType": "address",
          "name": "",
          "type": "address"
        }
      ],
      "stateMutability": "view",
      "type": "function",
      "constant": true
    },
    {
      "inputs": [],
      "name": "dany",
      "outputs": [
        {
          "internalType": "address",
          "name": "",
          "type": "address"
        }
      ],
      "stateMutability": "view",
      "type": "function",
      "constant": true
    },
    {
      "inputs": [],
      "name": "jordan",
      "outputs": [
        {
          "internalType": "address",
          "name": "",
          "type": "address"
        }
      ],
      "stateMutability": "view",
      "type": "function",
      "constant": true
    },
    {
      "inputs": [],
      "name": "jose",
      "outputs": [
        {
          "internalType": "address",
          "name": "",
          "type": "address"
        }
      ],
      "stateMutability": "view",
      "type": "function",
      "constant": true
    },
    {
      "inputs": [],
      "name": "maki",
      "outputs": [
        {
          "internalType": "address",
          "name": "",
          "type": "address"
        }
      ],
      "stateMutability": "view",
      "type": "function",
      "constant": true
    },
    {
      "inputs": [],
      "name": "owner",
      "outputs": [
        {
          "internalType": "address",
          "name": "",
          "type": "address"
        }
      ],
      "stateMutability": "view",
      "type": "function",
      "constant": true
    },
    {
      "inputs": [],
      "name": "richard",
      "outputs": [
        {
          "internalType": "address",
          "name": "",
          "type": "address"
        }
      ],
      "stateMutability": "view",
      "type": "function",
      "constant": true
    },
    {
      "inputs": [],
      "name": "roxana",
      "outputs": [
        {
          "internalType": "address",
          "name": "",
          "type": "address"
        }
      ],
      "stateMutability": "view",
      "type": "function",
      "constant": true
    },
    {
      "inputs": [],
      "name": "soto",
      "outputs": [
        {
          "internalType": "address",
          "name": "",
          "type": "address"
        }
      ],
      "stateMutability": "view",
      "type": "function",
      "constant": true
    },
    {
      "inputs": [],
      "name": "wendy",
      "outputs": [
        {
          "internalType": "address",
          "name": "",
          "type": "address"
        }
      ],
      "stateMutability": "view",
      "type": "function",
      "constant": true
    },
    {
      "inputs": [],
      "name": "yuca",
      "outputs": [
        {
          "internalType": "address",
          "name": "",
          "type": "address"
        }
      ],
      "stateMutability": "view",
      "type": "function",
      "constant": true
    },
    {
      "stateMutability": "payable",
      "type": "receive",
      "payable": true
    },
    {
      "inputs": [],
      "name": "distributeProfit",
      "outputs": [],
      "stateMutability": "payable",
      "type": "function",
      "payable": true
    }
  ],
  "bytecode": "0x60806040523480156200001157600080fd5b50604051620016ef380380620016ef83398181016040528101906200003791906200075d565b336000806101000a81548173ffffffffffffffffffffffffffffffffffffffff021916908373ffffffffffffffffffffffffffffffffffffffff160217905550806000600e81106200008e576200008d62000790565b5b6020020151600160006101000a81548173ffffffffffffffffffffffffffffffffffffffff021916908373ffffffffffffffffffffffffffffffffffffffff160217905550806001600e8110620000ea57620000e962000790565b5b6020020151600260006101000a81548173ffffffffffffffffffffffffffffffffffffffff021916908373ffffffffffffffffffffffffffffffffffffffff160217905550806002600e811062000146576200014562000790565b5b6020020151600360006101000a81548173ffffffffffffffffffffffffffffffffffffffff021916908373ffffffffffffffffffffffffffffffffffffffff160217905550806003600e8110620001a257620001a162000790565b5b6020020151600460006101000a81548173ffffffffffffffffffffffffffffffffffffffff021916908373ffffffffffffffffffffffffffffffffffffffff160217905550806004600e8110620001fe57620001fd62000790565b5b6020020151600560006101000a81548173ffffffffffffffffffffffffffffffffffffffff021916908373ffffffffffffffffffffffffffffffffffffffff160217905550806005600e81106200025a576200025962000790565b5b6020020151600660006101000a81548173ffffffffffffffffffffffffffffffffffffffff021916908373ffffffffffffffffffffffffffffffffffffffff160217905550806006600e8110620002b657620002b562000790565b5b6020020151600760006101000a81548173ffffffffffffffffffffffffffffffffffffffff021916908373ffffffffffffffffffffffffffffffffffffffff160217905550806007600e811062000312576200031162000790565b5b6020020151600860006101000a81548173ffffffffffffffffffffffffffffffffffffffff021916908373ffffffffffffffffffffffffffffffffffffffff160217905550806008600e81106200036e576200036d62000790565b5b6020020151600960006101000a81548173ffffffffffffffffffffffffffffffffffffffff021916908373ffffffffffffffffffffffffffffffffffffffff160217905550806009600e8110620003ca57620003c962000790565b5b6020020151600a60006101000a81548173ffffffffffffffffffffffffffffffffffffffff021916908373ffffffffffffffffffffffffffffffffffffffff16021790555080600a600e811062000426576200042562000790565b5b6020020151600b60006101000a81548173ffffffffffffffffffffffffffffffffffffffff021916908373ffffffffffffffffffffffffffffffffffffffff16021790555080600b600e811062000482576200048162000790565b5b6020020151600c60006101000a81548173ffffffffffffffffffffffffffffffffffffffff021916908373ffffffffffffffffffffffffffffffffffffffff16021790555080600c600e8110620004de57620004dd62000790565b5b6020020151600d60006101000a81548173ffffffffffffffffffffffffffffffffffffffff021916908373ffffffffffffffffffffffffffffffffffffffff16021790555080600d600e81106200053a576200053962000790565b5b6020020151600e60006101000a81548173ffffffffffffffffffffffffffffffffffffffff021916908373ffffffffffffffffffffffffffffffffffffffff16021790555050620007bf565b6000604051905090565b600080fd5b600080fd5b6000601f19601f8301169050919050565b7f4e487b7100000000000000000000000000000000000000000000000000000000600052604160045260246000fd5b620005e5826200059a565b810181811067ffffffffffffffff82111715620006075762000606620005ab565b5b80604052505050565b60006200061c62000586565b90506200062a8282620005da565b919050565b600067ffffffffffffffff8211156200064d576200064c620005ab565b5b602082029050919050565b600080fd5b600073ffffffffffffffffffffffffffffffffffffffff82169050919050565b60006200068a826200065d565b9050919050565b6200069c816200067d565b8114620006a857600080fd5b50565b600081519050620006bc8162000691565b92915050565b6000620006d9620006d3846200062f565b62000610565b90508060208402830185811115620006f657620006f562000658565b5b835b818110156200072357806200070e8882620006ab565b845260208401935050602081019050620006f8565b5050509392505050565b600082601f83011262000745576200074462000595565b5b600e62000754848285620006c2565b91505092915050565b60006101c0828403121562000777576200077662000590565b5b600062000787848285016200072d565b91505092915050565b7f4e487b7100000000000000000000000000000000000000000000000000000000600052603260045260246000fd5b610f2080620007cf6000396000f3fe6080604052600436106100f75760003560e01c80637ad270571161008a578063c6d95ce711610059578063c6d95ce7146102e6578063cb1cd68514610311578063edd4e9e21461033c578063f948ce0514610367576100fe565b80637ad270571461025b5780638a160b54146102865780638da5cb5b14610290578063c3bbc2bb146102bb576100fe565b8063546fa705116100c6578063546fa705146101af5780635794f8d2146101da57806357d2a15a14610205578063717559c314610230576100fe565b806317f469901461010357806331e2eec01461012e5780633ebc4b6f1461015957806349c1bbad14610184576100fe565b366100fe57005b600080fd5b34801561010f57600080fd5b50610118610392565b6040516101259190610d5f565b60405180910390f35b34801561013a57600080fd5b506101436103b8565b6040516101509190610d5f565b60405180910390f35b34801561016557600080fd5b5061016e6103de565b60405161017b9190610d5f565b60405180910390f35b34801561019057600080fd5b50610199610404565b6040516101a69190610d5f565b60405180910390f35b3480156101bb57600080fd5b506101c461042a565b6040516101d19190610d5f565b60405180910390f35b3480156101e657600080fd5b506101ef610450565b6040516101fc9190610d5f565b60405180910390f35b34801561021157600080fd5b5061021a610476565b6040516102279190610d5f565b60405180910390f35b34801561023c57600080fd5b5061024561049c565b6040516102529190610d5f565b60405180910390f35b34801561026757600080fd5b506102706104c2565b60405161027d9190610d5f565b60405180910390f35b61028e6104e8565b005b34801561029c57600080fd5b506102a5610c3c565b6040516102b29190610d5f565b60405180910390f35b3480156102c757600080fd5b506102d0610c60565b6040516102dd9190610d5f565b60405180910390f35b3480156102f257600080fd5b506102fb610c86565b6040516103089190610d5f565b60405180910390f35b34801561031d57600080fd5b50610326610cac565b6040516103339190610d5f565b60405180910390f35b34801561034857600080fd5b50610351610cd2565b60405161035e9190610d5f565b60405180910390f35b34801561037357600080fd5b5061037c610cf8565b6040516103899190610d5f565b60405180910390f35b600d60009054906101000a900473ffffffffffffffffffffffffffffffffffffffff1681565b600260009054906101000a900473ffffffffffffffffffffffffffffffffffffffff1681565b600860009054906101000a900473ffffffffffffffffffffffffffffffffffffffff1681565b600b60009054906101000a900473ffffffffffffffffffffffffffffffffffffffff1681565b600560009054906101000a900473ffffffffffffffffffffffffffffffffffffffff1681565b600960009054906101000a900473ffffffffffffffffffffffffffffffffffffffff1681565b600160009054906101000a900473ffffffffffffffffffffffffffffffffffffffff1681565b600a60009054906101000a900473ffffffffffffffffffffffffffffffffffffffff1681565b600e60009054906101000a900473ffffffffffffffffffffffffffffffffffffffff1681565b60008054906101000a900473ffffffffffffffffffffffffffffffffffffffff1673ffffffffffffffffffffffffffffffffffffffff163373ffffffffffffffffffffffffffffffffffffffff1614610576576040517f08c379a000000000000000000000000000000000000000000000000000000000815260040161056d90610dd7565b60405180910390fd5b600047905060008054906101000a900473ffffffffffffffffffffffffffffffffffffffff1673ffffffffffffffffffffffffffffffffffffffff166108fc6064600e846105c49190610e30565b6105ce9190610eb9565b9081150290604051600060405180830381858888f193505050506105f157600080fd5b600160009054906101000a900473ffffffffffffffffffffffffffffffffffffffff1673ffffffffffffffffffffffffffffffffffffffff166108fc600a8361063a9190610eb9565b9081150290604051600060405180830381858888f1935050505061065d57600080fd5b600260009054906101000a900473ffffffffffffffffffffffffffffffffffffffff1673ffffffffffffffffffffffffffffffffffffffff166108fc600a836106a69190610eb9565b9081150290604051600060405180830381858888f193505050506106c957600080fd5b600360009054906101000a900473ffffffffffffffffffffffffffffffffffffffff1673ffffffffffffffffffffffffffffffffffffffff166108fc600a836107129190610eb9565b9081150290604051600060405180830381858888f1935050505061073557600080fd5b600460009054906101000a900473ffffffffffffffffffffffffffffffffffffffff1673ffffffffffffffffffffffffffffffffffffffff166108fc600a8361077e9190610eb9565b9081150290604051600060405180830381858888f193505050506107a157600080fd5b600560009054906101000a900473ffffffffffffffffffffffffffffffffffffffff1673ffffffffffffffffffffffffffffffffffffffff166108fc60646009846107ec9190610e30565b6107f69190610eb9565b9081150290604051600060405180830381858888f1935050505061081957600080fd5b600660009054906101000a900473ffffffffffffffffffffffffffffffffffffffff1673ffffffffffffffffffffffffffffffffffffffff166108fc60196002846108649190610e30565b61086e9190610eb9565b9081150290604051600060405180830381858888f1935050505061089157600080fd5b600860009054906101000a900473ffffffffffffffffffffffffffffffffffffffff1673ffffffffffffffffffffffffffffffffffffffff166108fc6019836108da9190610eb9565b9081150290604051600060405180830381858888f193505050506108fd57600080fd5b600960009054906101000a900473ffffffffffffffffffffffffffffffffffffffff1673ffffffffffffffffffffffffffffffffffffffff166108fc6019836109469190610eb9565b9081150290604051600060405180830381858888f1935050505061096957600080fd5b600760009054906101000a900473ffffffffffffffffffffffffffffffffffffffff1673ffffffffffffffffffffffffffffffffffffffff166108fc60326003846109b49190610e30565b6109be9190610eb9565b9081150290604051600060405180830381858888f193505050506109e157600080fd5b600a60009054906101000a900473ffffffffffffffffffffffffffffffffffffffff1673ffffffffffffffffffffffffffffffffffffffff166108fc6064600384610a2c9190610e30565b610a369190610eb9565b9081150290604051600060405180830381858888f19350505050610a5957600080fd5b600b60009054906101000a900473ffffffffffffffffffffffffffffffffffffffff1673ffffffffffffffffffffffffffffffffffffffff166108fc6064600384610aa49190610e30565b610aae9190610eb9565b9081150290604051600060405180830381858888f19350505050610ad157600080fd5b600c60009054906101000a900473ffffffffffffffffffffffffffffffffffffffff1673ffffffffffffffffffffffffffffffffffffffff166108fc6064600384610b1c9190610e30565b610b269190610eb9565b9081150290604051600060405180830381858888f19350505050610b4957600080fd5b600d60009054906101000a900473ffffffffffffffffffffffffffffffffffffffff1673ffffffffffffffffffffffffffffffffffffffff166108fc6064600384610b949190610e30565b610b9e9190610eb9565b9081150290604051600060405180830381858888f19350505050610bc157600080fd5b600e60009054906101000a900473ffffffffffffffffffffffffffffffffffffffff1673ffffffffffffffffffffffffffffffffffffffff166108fc6064600384610c0c9190610e30565b610c169190610eb9565b9081150290604051600060405180830381858888f19350505050610c3957600080fd5b50565b60008054906101000a900473ffffffffffffffffffffffffffffffffffffffff1681565b600460009054906101000a900473ffffffffffffffffffffffffffffffffffffffff1681565b600c60009054906101000a900473ffffffffffffffffffffffffffffffffffffffff1681565b600660009054906101000a900473ffffffffffffffffffffffffffffffffffffffff1681565b600760009054906101000a900473ffffffffffffffffffffffffffffffffffffffff1681565b600360009054906101000a900473ffffffffffffffffffffffffffffffffffffffff1681565b600073ffffffffffffffffffffffffffffffffffffffff82169050919050565b6000610d4982610d1e565b9050919050565b610d5981610d3e565b82525050565b6000602082019050610d746000830184610d50565b92915050565b600082825260208201905092915050565b7f43616c6c6572206973206e6f7420746865206f776e6572000000000000000000600082015250565b6000610dc1601783610d7a565b9150610dcc82610d8b565b602082019050919050565b60006020820190508181036000830152610df081610db4565b9050919050565b6000819050919050565b7f4e487b7100000000000000000000000000000000000000000000000000000000600052601160045260246000fd5b6000610e3b82610df7565b9150610e4683610df7565b9250817fffffffffffffffffffffffffffffffffffffffffffffffffffffffffffffffff0483118215151615610e7f57610e7e610e01565b5b828202905092915050565b7f4e487b7100000000000000000000000000000000000000000000000000000000600052601260045260246000fd5b6000610ec482610df7565b9150610ecf83610df7565b925082610edf57610ede610e8a565b5b82820490509291505056fea2646970667358221220a2a7b4b1bfe6ce796119219754072087fba17b086761ee99eb3d45d97660175864736f6c634300080c0033",
  "immutableReferences": {},
  "source": "// SPDX-License-Identifier: MIT\n\npragma solidity ^0.8.0;\n\ncontract Manager {\n  // 14%\n  address public owner;\n\n  // 10%\n  address public alex;\n  address public jose;\n  address public wendy;\n  address public jordan;\n\n  // 9%\n  address public soto;\n\n  // 8%\n  address public yuca;\n\n  // 6%\n  address public ariel;\n\n  // 4%\n  address public dany;\n  address public richard;\n\n  // 3%\n  address public maki;\n  address public roxana;\n  address public daniela;\n  address public cristian;\n  address public alejandro;\n\n  constructor(address[14] memory _teamAccounts) {\n    // 14%\n    owner = msg.sender;\n\n    // 10%\n    alex = _teamAccounts[0];\n    jose = _teamAccounts[1];\n    wendy = _teamAccounts[2];\n    jordan = _teamAccounts[3];\n\n    // 9%\n    soto = _teamAccounts[4];\n\n    // 8%\n    yuca = _teamAccounts[5];\n\n    // 6%\n    ariel = _teamAccounts[6];\n\n    // 4%\n    dany = _teamAccounts[7];\n    richard = _teamAccounts[8];\n\n    // 3%\n    maki = _teamAccounts[9];\n    roxana = _teamAccounts[10];\n    daniela = _teamAccounts[11];\n    cristian = _teamAccounts[12];\n    alejandro = _teamAccounts[13];\n  }\n\n  // Will receive any eth sent to the contract\n  receive() external payable {}\n  \n  function distributeProfit() public payable {\n    require(msg.sender == owner, \"Caller is not the owner\");\n\n    uint256 balance = address(this).balance;\n\n    // 14%\n    require(payable(owner).send(balance * 14 / 100));\n\n    // 10%\n    require(payable(alex).send(balance / 10));\n    require(payable(jose).send(balance / 10));\n    require(payable(wendy).send(balance / 10));\n    require(payable(jordan).send(balance / 10));\n\n    // 9%\n    require(payable(soto).send(balance * 9 / 100));\n\n    // 8%\n    require(payable(yuca).send(balance * 2 / 25));\n\n    // 4%\n    require(payable(dany).send(balance / 25));\n    require(payable(richard).send(balance / 25));\n\n    // 6%\n    require(payable(ariel).send(balance * 3 / 50));\n\n    // 3%\n    require(payable(maki).send(balance * 3 / 100));\n    require(payable(roxana).send(balance * 3 / 100));\n    require(payable(daniela).send(balance * 3 / 100));\n    require(payable(cristian).send(balance * 3 / 100));\n    require(payable(alejandro).send(balance * 3 / 100));\n  }\n}\n",
  "sourcePath": "/home/jose92/Projects/nft-toolbox/contracts/Manager.sol",
  "compiler": {
    "name": "solc",
    "version": "0.8.12+commit.f00d7308.Emscripten.clang"
  },
  "schemaVersion": "3.4.3",
  "updatedAt": "2022-03-09T19:30:53.334Z",
  "networkType": "ethereum",
  "devdoc": {
    "kind": "dev",
    "methods": {},
    "version": 1
  },
  "userdoc": {
    "kind": "user",
    "methods": {},
    "version": 1
  }
}