{
  "contractName": "Zetasaurio",
  "abi": [
    {
      "inputs": [
        {
          "internalType": "address",
          "name": "_manager",
          "type": "address"
        }
      ],
      "stateMutability": "nonpayable",
      "type": "constructor"
    },
    {
      "anonymous": false,
      "inputs": [
        {
          "indexed": true,
          "internalType": "address",
          "name": "owner",
          "type": "address"
        },
        {
          "indexed": true,
          "internalType": "address",
          "name": "approved",
          "type": "address"
        },
        {
          "indexed": true,
          "internalType": "uint256",
          "name": "tokenId",
          "type": "uint256"
        }
      ],
      "name": "Approval",
      "type": "event"
    },
    {
      "anonymous": false,
      "inputs": [
        {
          "indexed": true,
          "internalType": "address",
          "name": "owner",
          "type": "address"
        },
        {
          "indexed": true,
          "internalType": "address",
          "name": "operator",
          "type": "address"
        },
        {
          "indexed": false,
          "internalType": "bool",
          "name": "approved",
          "type": "bool"
        }
      ],
      "name": "ApprovalForAll",
      "type": "event"
    },
    {
      "anonymous": false,
      "inputs": [
        {
          "indexed": true,
          "internalType": "address",
          "name": "from",
          "type": "address"
        },
        {
          "indexed": true,
          "internalType": "address",
          "name": "to",
          "type": "address"
        },
        {
          "indexed": true,
          "internalType": "uint256",
          "name": "tokenId",
          "type": "uint256"
        }
      ],
      "name": "Transfer",
      "type": "event"
    },
    {
      "inputs": [
        {
          "internalType": "address",
          "name": "to",
          "type": "address"
        },
        {
          "internalType": "uint256",
          "name": "tokenId",
          "type": "uint256"
        }
      ],
      "name": "approve",
      "outputs": [],
      "stateMutability": "nonpayable",
      "type": "function"
    },
    {
      "inputs": [
        {
          "internalType": "address",
          "name": "owner",
          "type": "address"
        }
      ],
      "name": "balanceOf",
      "outputs": [
        {
          "internalType": "uint256",
          "name": "",
          "type": "uint256"
        }
      ],
      "stateMutability": "view",
      "type": "function",
      "constant": true
    },
    {
      "inputs": [],
      "name": "baseURI",
      "outputs": [
        {
          "internalType": "string",
          "name": "",
          "type": "string"
        }
      ],
      "stateMutability": "view",
      "type": "function",
      "constant": true
    },
    {
      "inputs": [],
      "name": "batchMintLimit",
      "outputs": [
        {
          "internalType": "uint256",
          "name": "",
          "type": "uint256"
        }
      ],
      "stateMutability": "view",
      "type": "function",
      "constant": true
    },
    {
      "inputs": [
        {
          "internalType": "uint256",
          "name": "tokenId",
          "type": "uint256"
        }
      ],
      "name": "getApproved",
      "outputs": [
        {
          "internalType": "address",
          "name": "",
          "type": "address"
        }
      ],
      "stateMutability": "view",
      "type": "function",
      "constant": true
    },
    {
      "inputs": [
        {
          "internalType": "address",
          "name": "",
          "type": "address"
        }
      ],
      "name": "hasPresaleAccess",
      "outputs": [
        {
          "internalType": "bool",
          "name": "",
          "type": "bool"
        }
      ],
      "stateMutability": "view",
      "type": "function",
      "constant": true
    },
    {
      "inputs": [
        {
          "internalType": "address",
          "name": "owner",
          "type": "address"
        },
        {
          "internalType": "address",
          "name": "operator",
          "type": "address"
        }
      ],
      "name": "isApprovedForAll",
      "outputs": [
        {
          "internalType": "bool",
          "name": "",
          "type": "bool"
        }
      ],
      "stateMutability": "view",
      "type": "function",
      "constant": true
    },
    {
      "inputs": [],
      "name": "manager",
      "outputs": [
        {
          "internalType": "address",
          "name": "",
          "type": "address"
        }
      ],
      "stateMutability": "view",
      "type": "function",
      "constant": true
    },
    {
      "inputs": [],
      "name": "maxSupply",
      "outputs": [
        {
          "internalType": "uint256",
          "name": "",
          "type": "uint256"
        }
      ],
      "stateMutability": "view",
      "type": "function",
      "constant": true
    },
    {
      "inputs": [
        {
          "internalType": "address",
          "name": "",
          "type": "address"
        }
      ],
      "name": "mintedPerAddress",
      "outputs": [
        {
          "internalType": "uint256",
          "name": "",
          "type": "uint256"
        }
      ],
      "stateMutability": "view",
      "type": "function",
      "constant": true
    },
    {
      "inputs": [],
      "name": "name",
      "outputs": [
        {
          "internalType": "string",
          "name": "",
          "type": "string"
        }
      ],
      "stateMutability": "view",
      "type": "function",
      "constant": true
    },
    {
      "inputs": [],
      "name": "owner",
      "outputs": [
        {
          "internalType": "address",
          "name": "",
          "type": "address"
        }
      ],
      "stateMutability": "view",
      "type": "function",
      "constant": true
    },
    {
      "inputs": [
        {
          "internalType": "uint256",
          "name": "tokenId",
          "type": "uint256"
        }
      ],
      "name": "ownerOf",
      "outputs": [
        {
          "internalType": "address",
          "name": "",
          "type": "address"
        }
      ],
      "stateMutability": "view",
      "type": "function",
      "constant": true
    },
    {
      "inputs": [],
      "name": "presaleMintPerAddressLimit",
      "outputs": [
        {
          "internalType": "uint256",
          "name": "",
          "type": "uint256"
        }
      ],
      "stateMutability": "view",
      "type": "function",
      "constant": true
    },
    {
      "inputs": [],
      "name": "presaleStart",
      "outputs": [
        {
          "internalType": "uint256",
          "name": "",
          "type": "uint256"
        }
      ],
      "stateMutability": "view",
      "type": "function",
      "constant": true
    },
    {
      "inputs": [
        {
          "internalType": "address",
          "name": "from",
          "type": "address"
        },
        {
          "internalType": "address",
          "name": "to",
          "type": "address"
        },
        {
          "internalType": "uint256",
          "name": "tokenId",
          "type": "uint256"
        }
      ],
      "name": "safeTransferFrom",
      "outputs": [],
      "stateMutability": "nonpayable",
      "type": "function"
    },
    {
      "inputs": [
        {
          "internalType": "address",
          "name": "from",
          "type": "address"
        },
        {
          "internalType": "address",
          "name": "to",
          "type": "address"
        },
        {
          "internalType": "uint256",
          "name": "tokenId",
          "type": "uint256"
        },
        {
          "internalType": "bytes",
          "name": "_data",
          "type": "bytes"
        }
      ],
      "name": "safeTransferFrom",
      "outputs": [],
      "stateMutability": "nonpayable",
      "type": "function"
    },
    {
      "inputs": [],
      "name": "saleStart",
      "outputs": [
        {
          "internalType": "uint256",
          "name": "",
          "type": "uint256"
        }
      ],
      "stateMutability": "view",
      "type": "function",
      "constant": true
    },
    {
      "inputs": [
        {
          "internalType": "address",
          "name": "operator",
          "type": "address"
        },
        {
          "internalType": "bool",
          "name": "approved",
          "type": "bool"
        }
      ],
      "name": "setApprovalForAll",
      "outputs": [],
      "stateMutability": "nonpayable",
      "type": "function"
    },
    {
      "inputs": [
        {
          "internalType": "bytes4",
          "name": "interfaceId",
          "type": "bytes4"
        }
      ],
      "name": "supportsInterface",
      "outputs": [
        {
          "internalType": "bool",
          "name": "",
          "type": "bool"
        }
      ],
      "stateMutability": "view",
      "type": "function",
      "constant": true
    },
    {
      "inputs": [],
      "name": "symbol",
      "outputs": [
        {
          "internalType": "string",
          "name": "",
          "type": "string"
        }
      ],
      "stateMutability": "view",
      "type": "function",
      "constant": true
    },
    {
      "inputs": [
        {
          "internalType": "uint256",
          "name": "index",
          "type": "uint256"
        }
      ],
      "name": "tokenByIndex",
      "outputs": [
        {
          "internalType": "uint256",
          "name": "",
          "type": "uint256"
        }
      ],
      "stateMutability": "view",
      "type": "function",
      "constant": true
    },
    {
      "inputs": [
        {
          "internalType": "address",
          "name": "owner",
          "type": "address"
        },
        {
          "internalType": "uint256",
          "name": "index",
          "type": "uint256"
        }
      ],
      "name": "tokenOfOwnerByIndex",
      "outputs": [
        {
          "internalType": "uint256",
          "name": "",
          "type": "uint256"
        }
      ],
      "stateMutability": "view",
      "type": "function",
      "constant": true
    },
    {
      "inputs": [
        {
          "internalType": "uint256",
          "name": "tokenId",
          "type": "uint256"
        }
      ],
      "name": "tokenURI",
      "outputs": [
        {
          "internalType": "string",
          "name": "",
          "type": "string"
        }
      ],
      "stateMutability": "view",
      "type": "function",
      "constant": true
    },
    {
      "inputs": [],
      "name": "totalSupply",
      "outputs": [
        {
          "internalType": "uint256",
          "name": "",
          "type": "uint256"
        }
      ],
      "stateMutability": "view",
      "type": "function",
      "constant": true
    },
    {
      "inputs": [
        {
          "internalType": "address",
          "name": "from",
          "type": "address"
        },
        {
          "internalType": "address",
          "name": "to",
          "type": "address"
        },
        {
          "internalType": "uint256",
          "name": "tokenId",
          "type": "uint256"
        }
      ],
      "name": "transferFrom",
      "outputs": [],
      "stateMutability": "nonpayable",
      "type": "function"
    },
    {
      "inputs": [
        {
          "internalType": "string",
          "name": "_newBaseURI",
          "type": "string"
        }
      ],
      "name": "setBaseURI",
      "outputs": [],
      "stateMutability": "nonpayable",
      "type": "function"
    },
    {
      "inputs": [
        {
          "internalType": "uint256",
          "name": "_start",
          "type": "uint256"
        }
      ],
      "name": "schedulePresale",
      "outputs": [],
      "stateMutability": "nonpayable",
      "type": "function"
    },
    {
      "inputs": [
        {
          "internalType": "uint256",
          "name": "_start",
          "type": "uint256"
        }
      ],
      "name": "scheduleSale",
      "outputs": [],
      "stateMutability": "nonpayable",
      "type": "function"
    },
    {
      "inputs": [],
      "name": "presaleAlphaIsActive",
      "outputs": [
        {
          "internalType": "bool",
          "name": "",
          "type": "bool"
        }
      ],
      "stateMutability": "view",
      "type": "function",
      "constant": true
    },
    {
      "inputs": [],
      "name": "presaleBetaIsActive",
      "outputs": [
        {
          "internalType": "bool",
          "name": "",
          "type": "bool"
        }
      ],
      "stateMutability": "view",
      "type": "function",
      "constant": true
    },
    {
      "inputs": [],
      "name": "presaleGammaIsActive",
      "outputs": [
        {
          "internalType": "bool",
          "name": "",
          "type": "bool"
        }
      ],
      "stateMutability": "view",
      "type": "function",
      "constant": true
    },
    {
      "inputs": [],
      "name": "presaleIsActive",
      "outputs": [
        {
          "internalType": "bool",
          "name": "",
          "type": "bool"
        }
      ],
      "stateMutability": "view",
      "type": "function",
      "constant": true
    },
    {
      "inputs": [],
      "name": "saleIsActive",
      "outputs": [
        {
          "internalType": "bool",
          "name": "",
          "type": "bool"
        }
      ],
      "stateMutability": "view",
      "type": "function",
      "constant": true
    },
    {
      "inputs": [],
      "name": "cost",
      "outputs": [
        {
          "internalType": "uint256",
          "name": "",
          "type": "uint256"
        }
      ],
      "stateMutability": "view",
      "type": "function",
      "constant": true
    },
    {
      "inputs": [
        {
          "internalType": "address[]",
          "name": "_users",
          "type": "address[]"
        }
      ],
      "name": "grantPresaleAccess",
      "outputs": [],
      "stateMutability": "nonpayable",
      "type": "function"
    },
    {
      "inputs": [
        {
          "internalType": "address[]",
          "name": "_users",
          "type": "address[]"
        }
      ],
      "name": "revokePresaleAccess",
      "outputs": [],
      "stateMutability": "nonpayable",
      "type": "function"
    },
    {
      "inputs": [],
      "name": "withdraw",
      "outputs": [],
      "stateMutability": "payable",
      "type": "function",
      "payable": true
    },
    {
      "inputs": [
        {
          "internalType": "uint256",
          "name": "_amount",
          "type": "uint256"
        }
      ],
      "name": "reserve",
      "outputs": [],
      "stateMutability": "nonpayable",
      "type": "function"
    },
    {
      "inputs": [
        {
          "internalType": "uint256",
          "name": "_mintAmount",
          "type": "uint256"
        }
      ],
      "name": "mint",
      "outputs": [],
      "stateMutability": "payable",
      "type": "function",
      "payable": true
    }
  ],
  "bytecode": "0x608060405260405180602001604052806000815250600c90805190602001906200002b92919062000188565b503480156200003957600080fd5b5060405162004a3338038062004a3383398181016040528101906200005f9190620002a2565b6040518060400160405280600a81526020017f5a65746173617572696f000000000000000000000000000000000000000000008152506040518060400160405280600281526020017f5a530000000000000000000000000000000000000000000000000000000000008152508160009080519060200190620000e392919062000188565b508060019080519060200190620000fc92919062000188565b50505033600a60006101000a81548173ffffffffffffffffffffffffffffffffffffffff021916908373ffffffffffffffffffffffffffffffffffffffff16021790555080600b60006101000a81548173ffffffffffffffffffffffffffffffffffffffff021916908373ffffffffffffffffffffffffffffffffffffffff1602179055505062000339565b828054620001969062000303565b90600052602060002090601f016020900481019282620001ba576000855562000206565b82601f10620001d557805160ff191683800117855562000206565b8280016001018555821562000206579182015b8281111562000205578251825591602001919060010190620001e8565b5b50905062000215919062000219565b5090565b5b80821115620002345760008160009055506001016200021a565b5090565b600080fd5b600073ffffffffffffffffffffffffffffffffffffffff82169050919050565b60006200026a826200023d565b9050919050565b6200027c816200025d565b81146200028857600080fd5b50565b6000815190506200029c8162000271565b92915050565b600060208284031215620002bb57620002ba62000238565b5b6000620002cb848285016200028b565b91505092915050565b7f4e487b7100000000000000000000000000000000000000000000000000000000600052602260045260246000fd5b600060028204905060018216806200031c57607f821691505b60208210811415620003335762000332620002d4565b5b50919050565b6146ea80620003496000396000f3fe60806040526004361061023b5760003560e01c80637c920e471161012e578063c383e6c6116100ab578063d5abeb011161006f578063d5abeb011461087d578063de8801e5146108a8578063e985e9c5146108d3578063eb8d244414610910578063edd041ef1461093b5761023b565b8063c383e6c614610784578063c6bd6bc8146107ad578063c87b56dd146107d8578063d416914a14610815578063d445b978146108405761023b565b80639caa84e0116100f25780639caa84e0146106c0578063a0712d68146106eb578063a22cb46514610707578063ab0bcc4114610730578063b88d4fde1461075b5761023b565b80637c920e47146105ef578063819b25ba146106185780638da5cb5b1461064157806395d89b411461066c578063985e89fe146106975761023b565b806330f72cd4116101bc5780635299aef9116101805780635299aef9146104f857806355f804b3146105215780636352211e1461054a5780636c0360eb1461058757806370a08231146105b25761023b565b806330f72cd4146104325780633ccfd60b1461045d57806342842e0e14610467578063481c6a75146104905780634f6ccce7146104bb5761023b565b806313faede61161020357806313faede61461034b57806318160ddd1461037657806323b872dd146103a157806325efe85c146103ca5780632f745c59146103f55761023b565b806301ffc9a71461024057806306fdde031461027d578063081812fc146102a8578063095ea7b3146102e55780630f2091861461030e575b600080fd5b34801561024c57600080fd5b5061026760048036038101906102629190612fa3565b610966565b6040516102749190612feb565b60405180910390f35b34801561028957600080fd5b506102926109e0565b60405161029f919061309f565b60405180910390f35b3480156102b457600080fd5b506102cf60048036038101906102ca91906130f7565b610a72565b6040516102dc9190613165565b60405180910390f35b3480156102f157600080fd5b5061030c600480360381019061030791906131ac565b610af7565b005b34801561031a57600080fd5b50610335600480360381019061033091906131ec565b610c0f565b6040516103429190612feb565b60405180910390f35b34801561035757600080fd5b50610360610c2f565b60405161036d9190613228565b60405180910390f35b34801561038257600080fd5b5061038b610c94565b6040516103989190613228565b60405180910390f35b3480156103ad57600080fd5b506103c860048036038101906103c39190613243565b610ca1565b005b3480156103d657600080fd5b506103df610d01565b6040516103ec9190613228565b60405180910390f35b34801561040157600080fd5b5061041c600480360381019061041791906131ac565b610d06565b6040516104299190613228565b60405180910390f35b34801561043e57600080fd5b50610447610dab565b6040516104549190612feb565b60405180910390f35b610465610dd8565b005b34801561047357600080fd5b5061048e60048036038101906104899190613243565b610eca565b005b34801561049c57600080fd5b506104a5610eea565b6040516104b29190613165565b60405180910390f35b3480156104c757600080fd5b506104e260048036038101906104dd91906130f7565b610f10565b6040516104ef9190613228565b60405180910390f35b34801561050457600080fd5b5061051f600480360381019061051a91906130f7565b610f81565b005b34801561052d57600080fd5b50610548600480360381019061054391906133cb565b61101b565b005b34801561055657600080fd5b50610571600480360381019061056c91906130f7565b6110c5565b60405161057e9190613165565b60405180910390f35b34801561059357600080fd5b5061059c611177565b6040516105a9919061309f565b60405180910390f35b3480156105be57600080fd5b506105d960048036038101906105d491906131ec565b611205565b6040516105e69190613228565b60405180910390f35b3480156105fb57600080fd5b5061061660048036038101906106119190613474565b6112bd565b005b34801561062457600080fd5b5061063f600480360381019061063a91906130f7565b6113f2565b005b34801561064d57600080fd5b506106566114c9565b6040516106639190613165565b60405180910390f35b34801561067857600080fd5b506106816114ef565b60405161068e919061309f565b60405180910390f35b3480156106a357600080fd5b506106be60048036038101906106b99190613474565b611581565b005b3480156106cc57600080fd5b506106d56116b6565b6040516106e29190612feb565b60405180910390f35b610705600480360381019061070091906130f7565b6116de565b005b34801561071357600080fd5b5061072e600480360381019061072991906134ed565b611a23565b005b34801561073c57600080fd5b50610745611ba4565b6040516107529190613228565b60405180910390f35b34801561076757600080fd5b50610782600480360381019061077d91906135ce565b611baa565b005b34801561079057600080fd5b506107ab60048036038101906107a691906130f7565b611c0c565b005b3480156107b957600080fd5b506107c2611ca6565b6040516107cf9190613228565b60405180910390f35b3480156107e457600080fd5b506107ff60048036038101906107fa91906130f7565b611cab565b60405161080c919061309f565b60405180910390f35b34801561082157600080fd5b5061082a611d52565b6040516108379190612feb565b60405180910390f35b34801561084c57600080fd5b50610867600480360381019061086291906131ec565b611d88565b6040516108749190613228565b60405180910390f35b34801561088957600080fd5b50610892611da0565b60405161089f9190613228565b60405180910390f35b3480156108b457600080fd5b506108bd611da6565b6040516108ca9190613228565b60405180910390f35b3480156108df57600080fd5b506108fa60048036038101906108f59190613651565b611dac565b6040516109079190612feb565b60405180910390f35b34801561091c57600080fd5b50610925611e40565b6040516109329190612feb565b60405180910390f35b34801561094757600080fd5b50610950611e5b565b60405161095d9190612feb565b60405180910390f35b60007f780e9d63000000000000000000000000000000000000000000000000000000007bffffffffffffffffffffffffffffffffffffffffffffffffffffffff1916827bffffffffffffffffffffffffffffffffffffffffffffffffffffffff191614806109d957506109d882611e91565b5b9050919050565b6060600080546109ef906136c0565b80601f0160208091040260200160405190810160405280929190818152602001828054610a1b906136c0565b8015610a685780601f10610a3d57610100808354040283529160200191610a68565b820191906000526020600020905b815481529060010190602001808311610a4b57829003601f168201915b5050505050905090565b6000610a7d82611f73565b610abc576040517f08c379a0000000000000000000000000000000000000000000000000000000008152600401610ab390613764565b60405180910390fd5b6004600083815260200190815260200160002060009054906101000a900473ffffffffffffffffffffffffffffffffffffffff169050919050565b6000610b02826110c5565b90508073ffffffffffffffffffffffffffffffffffffffff168373ffffffffffffffffffffffffffffffffffffffff161415610b73576040517f08c379a0000000000000000000000000000000000000000000000000000000008152600401610b6a906137f6565b60405180910390fd5b8073ffffffffffffffffffffffffffffffffffffffff16610b92611fdf565b73ffffffffffffffffffffffffffffffffffffffff161480610bc15750610bc081610bbb611fdf565b611dac565b5b610c00576040517f08c379a0000000000000000000000000000000000000000000000000000000008152600401610bf790613888565b60405180910390fd5b610c0a8383611fe7565b505050565b600f6020528060005260406000206000915054906101000a900460ff1681565b6000610c396116b6565b15610c4d57668e1bc9bf0400009050610c91565b610c55611e5b565b15610c695766b1a2bc2ec500009050610c91565b610c71611d52565b15610c855766d529ae9e8600009050610c91565b67011c37937e08000090505b90565b6000600880549050905090565b610cb2610cac611fdf565b826120a0565b610cf1576040517f08c379a0000000000000000000000000000000000000000000000000000000008152600401610ce89061391a565b60405180910390fd5b610cfc83838361217e565b505050565b600281565b6000610d1183611205565b8210610d52576040517f08c379a0000000000000000000000000000000000000000000000000000000008152600401610d49906139ac565b60405180910390fd5b600660008473ffffffffffffffffffffffffffffffffffffffff1673ffffffffffffffffffffffffffffffffffffffff168152602001908152602001600020600083815260200190815260200160002054905092915050565b6000610db56116b6565b80610dc45750610dc3611e5b565b5b80610dd35750610dd2611d52565b5b905090565b3373ffffffffffffffffffffffffffffffffffffffff16600a60009054906101000a900473ffffffffffffffffffffffffffffffffffffffff1673ffffffffffffffffffffffffffffffffffffffff1614610e68576040517f08c379a0000000000000000000000000000000000000000000000000000000008152600401610e5f90613a18565b60405180910390fd5b600b60009054906101000a900473ffffffffffffffffffffffffffffffffffffffff1673ffffffffffffffffffffffffffffffffffffffff166108fc479081150290604051600060405180830381858888f19350505050610ec857600080fd5b565b610ee583838360405180602001604052806000815250611baa565b505050565b600b60009054906101000a900473ffffffffffffffffffffffffffffffffffffffff1681565b6000610f1a610c94565b8210610f5b576040517f08c379a0000000000000000000000000000000000000000000000000000000008152600401610f5290613aaa565b60405180910390fd5b60088281548110610f6f57610f6e613aca565b5b90600052602060002001549050919050565b3373ffffffffffffffffffffffffffffffffffffffff16600a60009054906101000a900473ffffffffffffffffffffffffffffffffffffffff1673ffffffffffffffffffffffffffffffffffffffff1614611011576040517f08c379a000000000000000000000000000000000000000000000000000000000815260040161100890613a18565b60405180910390fd5b80600e8190555050565b3373ffffffffffffffffffffffffffffffffffffffff16600a60009054906101000a900473ffffffffffffffffffffffffffffffffffffffff1673ffffffffffffffffffffffffffffffffffffffff16146110ab576040517f08c379a00000000000000000000000000000000000000000000000000000000081526004016110a290613a18565b60405180910390fd5b80600c90805190602001906110c1929190612e94565b5050565b6000806002600084815260200190815260200160002060009054906101000a900473ffffffffffffffffffffffffffffffffffffffff169050600073ffffffffffffffffffffffffffffffffffffffff168173ffffffffffffffffffffffffffffffffffffffff16141561116e576040517f08c379a000000000000000000000000000000000000000000000000000000000815260040161116590613b6b565b60405180910390fd5b80915050919050565b600c8054611184906136c0565b80601f01602080910402602001604051908101604052809291908181526020018280546111b0906136c0565b80156111fd5780601f106111d2576101008083540402835291602001916111fd565b820191906000526020600020905b8154815290600101906020018083116111e057829003601f168201915b505050505081565b60008073ffffffffffffffffffffffffffffffffffffffff168273ffffffffffffffffffffffffffffffffffffffff161415611276576040517f08c379a000000000000000000000000000000000000000000000000000000000815260040161126d90613bfd565b60405180910390fd5b600360008373ffffffffffffffffffffffffffffffffffffffff1673ffffffffffffffffffffffffffffffffffffffff168152602001908152602001600020549050919050565b3373ffffffffffffffffffffffffffffffffffffffff16600a60009054906101000a900473ffffffffffffffffffffffffffffffffffffffff1673ffffffffffffffffffffffffffffffffffffffff161461134d576040517f08c379a000000000000000000000000000000000000000000000000000000000815260040161134490613a18565b60405180910390fd5b60005b828290508110156113ed576001600f600085858581811061137457611373613aca565b5b905060200201602081019061138991906131ec565b73ffffffffffffffffffffffffffffffffffffffff1673ffffffffffffffffffffffffffffffffffffffff16815260200190815260200160002060006101000a81548160ff02191690831515021790555080806113e590613c4c565b915050611350565b505050565b3373ffffffffffffffffffffffffffffffffffffffff16600a60009054906101000a900473ffffffffffffffffffffffffffffffffffffffff1673ffffffffffffffffffffffffffffffffffffffff1614611482576040517f08c379a000000000000000000000000000000000000000000000000000000000815260040161147990613a18565b60405180910390fd5b600061148c610c94565b90506000600190505b8281116114c4576114b13382846114ac9190613c95565b6123da565b80806114bc90613c4c565b915050611495565b505050565b600a60009054906101000a900473ffffffffffffffffffffffffffffffffffffffff1681565b6060600180546114fe906136c0565b80601f016020809104026020016040519081016040528092919081815260200182805461152a906136c0565b80156115775780601f1061154c57610100808354040283529160200191611577565b820191906000526020600020905b81548152906001019060200180831161155a57829003601f168201915b5050505050905090565b3373ffffffffffffffffffffffffffffffffffffffff16600a60009054906101000a900473ffffffffffffffffffffffffffffffffffffffff1673ffffffffffffffffffffffffffffffffffffffff1614611611576040517f08c379a000000000000000000000000000000000000000000000000000000000815260040161160890613a18565b60405180910390fd5b60005b828290508110156116b1576000600f600085858581811061163857611637613aca565b5b905060200201602081019061164d91906131ec565b73ffffffffffffffffffffffffffffffffffffffff1673ffffffffffffffffffffffffffffffffffffffff16815260200190815260200160002060006101000a81548160ff02191690831515021790555080806116a990613c4c565b915050611614565b505050565b600042600e54111580156116d957506201fa40600e546116d69190613c95565b42105b905090565b60006116e8610c94565b90506116f2611e40565b806117015750611700610dab565b5b611740576040517f08c379a000000000000000000000000000000000000000000000000000000000815260040161173790613d37565b60405180910390fd5b60008211611783576040517f08c379a000000000000000000000000000000000000000000000000000000000815260040161177a90613da3565b60405180910390fd5b61271082826117929190613c95565b11156117d3576040517f08c379a00000000000000000000000000000000000000000000000000000000081526004016117ca90613e0f565b60405180910390fd5b6005821115611817576040517f08c379a000000000000000000000000000000000000000000000000000000000815260040161180e90613ea1565b60405180910390fd5b81611820610c2f565b61182a9190613ec1565b34101561186c576040517f08c379a000000000000000000000000000000000000000000000000000000000815260040161186390613f67565b60405180910390fd5b611874610dab565b1561199357600f60003373ffffffffffffffffffffffffffffffffffffffff1673ffffffffffffffffffffffffffffffffffffffff16815260200190815260200160002060009054906101000a900460ff16611905576040517f08c379a00000000000000000000000000000000000000000000000000000000081526004016118fc90613fd3565b60405180910390fd5b600282601060003373ffffffffffffffffffffffffffffffffffffffff1673ffffffffffffffffffffffffffffffffffffffff168152602001908152602001600020546119529190613c95565b10611992576040517f08c379a00000000000000000000000000000000000000000000000000000000081526004016119899061403f565b60405180910390fd5b5b6000600190505b828111611a1e57601060003373ffffffffffffffffffffffffffffffffffffffff1673ffffffffffffffffffffffffffffffffffffffff16815260200190815260200160002060008154809291906119f190613c4c565b9190505550611a0b338284611a069190613c95565b6123da565b8080611a1690613c4c565b91505061199a565b505050565b611a2b611fdf565b73ffffffffffffffffffffffffffffffffffffffff168273ffffffffffffffffffffffffffffffffffffffff161415611a99576040517f08c379a0000000000000000000000000000000000000000000000000000000008152600401611a90906140ab565b60405180910390fd5b8060056000611aa6611fdf565b73ffffffffffffffffffffffffffffffffffffffff1673ffffffffffffffffffffffffffffffffffffffff16815260200190815260200160002060008473ffffffffffffffffffffffffffffffffffffffff1673ffffffffffffffffffffffffffffffffffffffff16815260200190815260200160002060006101000a81548160ff0219169083151502179055508173ffffffffffffffffffffffffffffffffffffffff16611b53611fdf565b73ffffffffffffffffffffffffffffffffffffffff167f17307eab39ab6107e8899845ad3d59bd9653f200f220920489ca2b5937696c3183604051611b989190612feb565b60405180910390a35050565b600d5481565b611bbb611bb5611fdf565b836120a0565b611bfa576040517f08c379a0000000000000000000000000000000000000000000000000000000008152600401611bf19061391a565b60405180910390fd5b611c06848484846123f8565b50505050565b3373ffffffffffffffffffffffffffffffffffffffff16600a60009054906101000a900473ffffffffffffffffffffffffffffffffffffffff1673ffffffffffffffffffffffffffffffffffffffff1614611c9c576040517f08c379a0000000000000000000000000000000000000000000000000000000008152600401611c9390613a18565b60405180910390fd5b80600d8190555050565b600581565b6060611cb682611f73565b611cf5576040517f08c379a0000000000000000000000000000000000000000000000000000000008152600401611cec9061413d565b60405180910390fd5b6000611cff612454565b90506000815111611d1f5760405180602001604052806000815250611d4a565b80611d29846124e6565b604051602001611d3a929190614199565b6040516020818303038152906040525b915050919050565b600042620bdd80600e54611d669190613c95565b11158015611d835750620dd7c0600e54611d809190613c95565b42105b905090565b60106020528060005260406000206000915090505481565b61271081565b600e5481565b6000600560008473ffffffffffffffffffffffffffffffffffffffff1673ffffffffffffffffffffffffffffffffffffffff16815260200190815260200160002060008373ffffffffffffffffffffffffffffffffffffffff1673ffffffffffffffffffffffffffffffffffffffff16815260200190815260200160002060009054906101000a900460ff16905092915050565b600080600d5414158015611e56575042600d5411155b905090565b6000426205eec0600e54611e6f9190613c95565b11158015611e8c57506207e900600e54611e899190613c95565b42105b905090565b60007f80ac58cd000000000000000000000000000000000000000000000000000000007bffffffffffffffffffffffffffffffffffffffffffffffffffffffff1916827bffffffffffffffffffffffffffffffffffffffffffffffffffffffff19161480611f5c57507f5b5e139f000000000000000000000000000000000000000000000000000000007bffffffffffffffffffffffffffffffffffffffffffffffffffffffff1916827bffffffffffffffffffffffffffffffffffffffffffffffffffffffff1916145b80611f6c5750611f6b82612647565b5b9050919050565b60008073ffffffffffffffffffffffffffffffffffffffff166002600084815260200190815260200160002060009054906101000a900473ffffffffffffffffffffffffffffffffffffffff1673ffffffffffffffffffffffffffffffffffffffff1614159050919050565b600033905090565b816004600083815260200190815260200160002060006101000a81548173ffffffffffffffffffffffffffffffffffffffff021916908373ffffffffffffffffffffffffffffffffffffffff160217905550808273ffffffffffffffffffffffffffffffffffffffff1661205a836110c5565b73ffffffffffffffffffffffffffffffffffffffff167f8c5be1e5ebec7d5bd14f71427d1e84f3dd0314c0f7b2291e5b200ac8c7c3b92560405160405180910390a45050565b60006120ab82611f73565b6120ea576040517f08c379a00000000000000000000000000000000000000000000000000000000081526004016120e19061422f565b60405180910390fd5b60006120f5836110c5565b90508073ffffffffffffffffffffffffffffffffffffffff168473ffffffffffffffffffffffffffffffffffffffff16148061216457508373ffffffffffffffffffffffffffffffffffffffff1661214c84610a72565b73ffffffffffffffffffffffffffffffffffffffff16145b8061217557506121748185611dac565b5b91505092915050565b8273ffffffffffffffffffffffffffffffffffffffff1661219e826110c5565b73ffffffffffffffffffffffffffffffffffffffff16146121f4576040517f08c379a00000000000000000000000000000000000000000000000000000000081526004016121eb906142c1565b60405180910390fd5b600073ffffffffffffffffffffffffffffffffffffffff168273ffffffffffffffffffffffffffffffffffffffff161415612264576040517f08c379a000000000000000000000000000000000000000000000000000000000815260040161225b90614353565b60405180910390fd5b61226f8383836126b1565b61227a600082611fe7565b6001600360008573ffffffffffffffffffffffffffffffffffffffff1673ffffffffffffffffffffffffffffffffffffffff16815260200190815260200160002060008282546122ca9190614373565b925050819055506001600360008473ffffffffffffffffffffffffffffffffffffffff1673ffffffffffffffffffffffffffffffffffffffff16815260200190815260200160002060008282546123219190613c95565b92505081905550816002600083815260200190815260200160002060006101000a81548173ffffffffffffffffffffffffffffffffffffffff021916908373ffffffffffffffffffffffffffffffffffffffff160217905550808273ffffffffffffffffffffffffffffffffffffffff168473ffffffffffffffffffffffffffffffffffffffff167fddf252ad1be2c89b69c2b068fc378daa952ba7f163c4a11628f55a4df523b3ef60405160405180910390a4505050565b6123f48282604051806020016040528060008152506127c5565b5050565b61240384848461217e565b61240f84848484612820565b61244e576040517f08c379a000000000000000000000000000000000000000000000000000000000815260040161244590614419565b60405180910390fd5b50505050565b6060600c8054612463906136c0565b80601f016020809104026020016040519081016040528092919081815260200182805461248f906136c0565b80156124dc5780601f106124b1576101008083540402835291602001916124dc565b820191906000526020600020905b8154815290600101906020018083116124bf57829003601f168201915b5050505050905090565b6060600082141561252e576040518060400160405280600181526020017f30000000000000000000000000000000000000000000000000000000000000008152509050612642565b600082905060005b6000821461256057808061254990613c4c565b915050600a826125599190614468565b9150612536565b60008167ffffffffffffffff81111561257c5761257b6132a0565b5b6040519080825280601f01601f1916602001820160405280156125ae5781602001600182028036833780820191505090505b5090505b6000851461263b576001826125c79190614373565b9150600a856125d69190614499565b60306125e29190613c95565b60f81b8183815181106125f8576125f7613aca565b5b60200101907effffffffffffffffffffffffffffffffffffffffffffffffffffffffffffff1916908160001a905350600a856126349190614468565b94506125b2565b8093505050505b919050565b60007f01ffc9a7000000000000000000000000000000000000000000000000000000007bffffffffffffffffffffffffffffffffffffffffffffffffffffffff1916827bffffffffffffffffffffffffffffffffffffffffffffffffffffffff1916149050919050565b6126bc8383836129a8565b600073ffffffffffffffffffffffffffffffffffffffff168373ffffffffffffffffffffffffffffffffffffffff1614156126ff576126fa816129ad565b61273e565b8173ffffffffffffffffffffffffffffffffffffffff168373ffffffffffffffffffffffffffffffffffffffff161461273d5761273c83826129f6565b5b5b600073ffffffffffffffffffffffffffffffffffffffff168273ffffffffffffffffffffffffffffffffffffffff1614156127815761277c81612b63565b6127c0565b8273ffffffffffffffffffffffffffffffffffffffff168273ffffffffffffffffffffffffffffffffffffffff16146127bf576127be8282612c34565b5b5b505050565b6127cf8383612cb3565b6127dc6000848484612820565b61281b576040517f08c379a000000000000000000000000000000000000000000000000000000000815260040161281290614419565b60405180910390fd5b505050565b60006128418473ffffffffffffffffffffffffffffffffffffffff16612e81565b1561299b578373ffffffffffffffffffffffffffffffffffffffff1663150b7a0261286a611fdf565b8786866040518563ffffffff1660e01b815260040161288c949392919061451f565b6020604051808303816000875af19250505080156128c857506040513d601f19601f820116820180604052508101906128c59190614580565b60015b61294b573d80600081146128f8576040519150601f19603f3d011682016040523d82523d6000602084013e6128fd565b606091505b50600081511415612943576040517f08c379a000000000000000000000000000000000000000000000000000000000815260040161293a90614419565b60405180910390fd5b805181602001fd5b63150b7a0260e01b7bffffffffffffffffffffffffffffffffffffffffffffffffffffffff1916817bffffffffffffffffffffffffffffffffffffffffffffffffffffffff1916149150506129a0565b600190505b949350505050565b505050565b6008805490506009600083815260200190815260200160002081905550600881908060018154018082558091505060019003906000526020600020016000909190919091505550565b60006001612a0384611205565b612a0d9190614373565b9050600060076000848152602001908152602001600020549050818114612af2576000600660008673ffffffffffffffffffffffffffffffffffffffff1673ffffffffffffffffffffffffffffffffffffffff168152602001908152602001600020600084815260200190815260200160002054905080600660008773ffffffffffffffffffffffffffffffffffffffff1673ffffffffffffffffffffffffffffffffffffffff168152602001908152602001600020600084815260200190815260200160002081905550816007600083815260200190815260200160002081905550505b6007600084815260200190815260200160002060009055600660008573ffffffffffffffffffffffffffffffffffffffff1673ffffffffffffffffffffffffffffffffffffffff16815260200190815260200160002060008381526020019081526020016000206000905550505050565b60006001600880549050612b779190614373565b9050600060096000848152602001908152602001600020549050600060088381548110612ba757612ba6613aca565b5b906000526020600020015490508060088381548110612bc957612bc8613aca565b5b906000526020600020018190555081600960008381526020019081526020016000208190555060096000858152602001908152602001600020600090556008805480612c1857612c176145ad565b5b6001900381819060005260206000200160009055905550505050565b6000612c3f83611205565b905081600660008573ffffffffffffffffffffffffffffffffffffffff1673ffffffffffffffffffffffffffffffffffffffff168152602001908152602001600020600083815260200190815260200160002081905550806007600084815260200190815260200160002081905550505050565b600073ffffffffffffffffffffffffffffffffffffffff168273ffffffffffffffffffffffffffffffffffffffff161415612d23576040517f08c379a0000000000000000000000000000000000000000000000000000000008152600401612d1a90614628565b60405180910390fd5b612d2c81611f73565b15612d6c576040517f08c379a0000000000000000000000000000000000000000000000000000000008152600401612d6390614694565b60405180910390fd5b612d78600083836126b1565b6001600360008473ffffffffffffffffffffffffffffffffffffffff1673ffffffffffffffffffffffffffffffffffffffff1681526020019081526020016000206000828254612dc89190613c95565b92505081905550816002600083815260200190815260200160002060006101000a81548173ffffffffffffffffffffffffffffffffffffffff021916908373ffffffffffffffffffffffffffffffffffffffff160217905550808273ffffffffffffffffffffffffffffffffffffffff16600073ffffffffffffffffffffffffffffffffffffffff167fddf252ad1be2c89b69c2b068fc378daa952ba7f163c4a11628f55a4df523b3ef60405160405180910390a45050565b600080823b905060008111915050919050565b828054612ea0906136c0565b90600052602060002090601f016020900481019282612ec25760008555612f09565b82601f10612edb57805160ff1916838001178555612f09565b82800160010185558215612f09579182015b82811115612f08578251825591602001919060010190612eed565b5b509050612f169190612f1a565b5090565b5b80821115612f33576000816000905550600101612f1b565b5090565b6000604051905090565b600080fd5b600080fd5b60007fffffffff0000000000000000000000000000000000000000000000000000000082169050919050565b612f8081612f4b565b8114612f8b57600080fd5b50565b600081359050612f9d81612f77565b92915050565b600060208284031215612fb957612fb8612f41565b5b6000612fc784828501612f8e565b91505092915050565b60008115159050919050565b612fe581612fd0565b82525050565b60006020820190506130006000830184612fdc565b92915050565b600081519050919050565b600082825260208201905092915050565b60005b83811015613040578082015181840152602081019050613025565b8381111561304f576000848401525b50505050565b6000601f19601f8301169050919050565b600061307182613006565b61307b8185613011565b935061308b818560208601613022565b61309481613055565b840191505092915050565b600060208201905081810360008301526130b98184613066565b905092915050565b6000819050919050565b6130d4816130c1565b81146130df57600080fd5b50565b6000813590506130f1816130cb565b92915050565b60006020828403121561310d5761310c612f41565b5b600061311b848285016130e2565b91505092915050565b600073ffffffffffffffffffffffffffffffffffffffff82169050919050565b600061314f82613124565b9050919050565b61315f81613144565b82525050565b600060208201905061317a6000830184613156565b92915050565b61318981613144565b811461319457600080fd5b50565b6000813590506131a681613180565b92915050565b600080604083850312156131c3576131c2612f41565b5b60006131d185828601613197565b92505060206131e2858286016130e2565b9150509250929050565b60006020828403121561320257613201612f41565b5b600061321084828501613197565b91505092915050565b613222816130c1565b82525050565b600060208201905061323d6000830184613219565b92915050565b60008060006060848603121561325c5761325b612f41565b5b600061326a86828701613197565b935050602061327b86828701613197565b925050604061328c868287016130e2565b9150509250925092565b600080fd5b600080fd5b7f4e487b7100000000000000000000000000000000000000000000000000000000600052604160045260246000fd5b6132d882613055565b810181811067ffffffffffffffff821117156132f7576132f66132a0565b5b80604052505050565b600061330a612f37565b905061331682826132cf565b919050565b600067ffffffffffffffff821115613336576133356132a0565b5b61333f82613055565b9050602081019050919050565b82818337600083830152505050565b600061336e6133698461331b565b613300565b90508281526020810184848401111561338a5761338961329b565b5b61339584828561334c565b509392505050565b600082601f8301126133b2576133b1613296565b5b81356133c284826020860161335b565b91505092915050565b6000602082840312156133e1576133e0612f41565b5b600082013567ffffffffffffffff8111156133ff576133fe612f46565b5b61340b8482850161339d565b91505092915050565b600080fd5b600080fd5b60008083601f84011261343457613433613296565b5b8235905067ffffffffffffffff81111561345157613450613414565b5b60208301915083602082028301111561346d5761346c613419565b5b9250929050565b6000806020838503121561348b5761348a612f41565b5b600083013567ffffffffffffffff8111156134a9576134a8612f46565b5b6134b58582860161341e565b92509250509250929050565b6134ca81612fd0565b81146134d557600080fd5b50565b6000813590506134e7816134c1565b92915050565b6000806040838503121561350457613503612f41565b5b600061351285828601613197565b9250506020613523858286016134d8565b9150509250929050565b600067ffffffffffffffff821115613548576135476132a0565b5b61355182613055565b9050602081019050919050565b600061357161356c8461352d565b613300565b90508281526020810184848401111561358d5761358c61329b565b5b61359884828561334c565b509392505050565b600082601f8301126135b5576135b4613296565b5b81356135c584826020860161355e565b91505092915050565b600080600080608085870312156135e8576135e7612f41565b5b60006135f687828801613197565b945050602061360787828801613197565b9350506040613618878288016130e2565b925050606085013567ffffffffffffffff81111561363957613638612f46565b5b613645878288016135a0565b91505092959194509250565b6000806040838503121561366857613667612f41565b5b600061367685828601613197565b925050602061368785828601613197565b9150509250929050565b7f4e487b7100000000000000000000000000000000000000000000000000000000600052602260045260246000fd5b600060028204905060018216806136d857607f821691505b602082108114156136ec576136eb613691565b5b50919050565b7f4552433732313a20617070726f76656420717565727920666f72206e6f6e657860008201527f697374656e7420746f6b656e0000000000000000000000000000000000000000602082015250565b600061374e602c83613011565b9150613759826136f2565b604082019050919050565b6000602082019050818103600083015261377d81613741565b9050919050565b7f4552433732313a20617070726f76616c20746f2063757272656e74206f776e6560008201527f7200000000000000000000000000000000000000000000000000000000000000602082015250565b60006137e0602183613011565b91506137eb82613784565b604082019050919050565b6000602082019050818103600083015261380f816137d3565b9050919050565b7f4552433732313a20617070726f76652063616c6c6572206973206e6f74206f7760008201527f6e6572206e6f7220617070726f76656420666f7220616c6c0000000000000000602082015250565b6000613872603883613011565b915061387d82613816565b604082019050919050565b600060208201905081810360008301526138a181613865565b9050919050565b7f4552433732313a207472616e736665722063616c6c6572206973206e6f74206f60008201527f776e6572206e6f7220617070726f766564000000000000000000000000000000602082015250565b6000613904603183613011565b915061390f826138a8565b604082019050919050565b60006020820190508181036000830152613933816138f7565b9050919050565b7f455243373231456e756d657261626c653a206f776e657220696e646578206f7560008201527f74206f6620626f756e6473000000000000000000000000000000000000000000602082015250565b6000613996602b83613011565b91506139a18261393a565b604082019050919050565b600060208201905081810360008301526139c581613989565b9050919050565b7f43616c6c6572206973206e6f7420746865206f776e6572000000000000000000600082015250565b6000613a02601783613011565b9150613a0d826139cc565b602082019050919050565b60006020820190508181036000830152613a31816139f5565b9050919050565b7f455243373231456e756d657261626c653a20676c6f62616c20696e646578206f60008201527f7574206f6620626f756e64730000000000000000000000000000000000000000602082015250565b6000613a94602c83613011565b9150613a9f82613a38565b604082019050919050565b60006020820190508181036000830152613ac381613a87565b9050919050565b7f4e487b7100000000000000000000000000000000000000000000000000000000600052603260045260246000fd5b7f4552433732313a206f776e657220717565727920666f72206e6f6e657869737460008201527f656e7420746f6b656e0000000000000000000000000000000000000000000000602082015250565b6000613b55602983613011565b9150613b6082613af9565b604082019050919050565b60006020820190508181036000830152613b8481613b48565b9050919050565b7f4552433732313a2062616c616e636520717565727920666f7220746865207a6560008201527f726f206164647265737300000000000000000000000000000000000000000000602082015250565b6000613be7602a83613011565b9150613bf282613b8b565b604082019050919050565b60006020820190508181036000830152613c1681613bda565b9050919050565b7f4e487b7100000000000000000000000000000000000000000000000000000000600052601160045260246000fd5b6000613c57826130c1565b91507fffffffffffffffffffffffffffffffffffffffffffffffffffffffffffffffff821415613c8a57613c89613c1d565b5b600182019050919050565b6000613ca0826130c1565b9150613cab836130c1565b9250827fffffffffffffffffffffffffffffffffffffffffffffffffffffffffffffffff03821115613ce057613cdf613c1d565b5b828201905092915050565b7f53616c65206973206e6f74206163746976650000000000000000000000000000600082015250565b6000613d21601283613011565b9150613d2c82613ceb565b602082019050919050565b60006020820190508181036000830152613d5081613d14565b9050919050565b7f4d757374206d696e74206174206c65617374206f6e65204e4654000000000000600082015250565b6000613d8d601a83613011565b9150613d9882613d57565b602082019050919050565b60006020820190508181036000830152613dbc81613d80565b9050919050565b7f537570706c79206c656674206973206e6f7420656e6f75676800000000000000600082015250565b6000613df9601983613011565b9150613e0482613dc3565b602082019050919050565b60006020820190508181036000830152613e2881613dec565b9050919050565b7f43616e2774206d696e74207468657365206d616e79204e465473206174206f6e60008201527f6365000000000000000000000000000000000000000000000000000000000000602082015250565b6000613e8b602283613011565b9150613e9682613e2f565b604082019050919050565b60006020820190508181036000830152613eba81613e7e565b9050919050565b6000613ecc826130c1565b9150613ed7836130c1565b9250817fffffffffffffffffffffffffffffffffffffffffffffffffffffffffffffffff0483118215151615613f1057613f0f613c1d565b5b828202905092915050565b7f4e6f7420656e6f7567682066756e647320746f20707572636861736500000000600082015250565b6000613f51601c83613011565b9150613f5c82613f1b565b602082019050919050565b60006020820190508181036000830152613f8081613f44565b9050919050565b7f50726573616c65206163636573732064656e6965640000000000000000000000600082015250565b6000613fbd601583613011565b9150613fc882613f87565b602082019050919050565b60006020820190508181036000830152613fec81613fb0565b9050919050565b7f4e6f7420656e6f7567682070726573616c65206d696e74696e6773206c656674600082015250565b6000614029602083613011565b915061403482613ff3565b602082019050919050565b600060208201905081810360008301526140588161401c565b9050919050565b7f4552433732313a20617070726f766520746f2063616c6c657200000000000000600082015250565b6000614095601983613011565b91506140a08261405f565b602082019050919050565b600060208201905081810360008301526140c481614088565b9050919050565b7f4552433732314d657461646174613a2055524920717565727920666f72206e6f60008201527f6e6578697374656e7420746f6b656e0000000000000000000000000000000000602082015250565b6000614127602f83613011565b9150614132826140cb565b604082019050919050565b600060208201905081810360008301526141568161411a565b9050919050565b600081905092915050565b600061417382613006565b61417d818561415d565b935061418d818560208601613022565b80840191505092915050565b60006141a58285614168565b91506141b18284614168565b91508190509392505050565b7f4552433732313a206f70657261746f7220717565727920666f72206e6f6e657860008201527f697374656e7420746f6b656e0000000000000000000000000000000000000000602082015250565b6000614219602c83613011565b9150614224826141bd565b604082019050919050565b600060208201905081810360008301526142488161420c565b9050919050565b7f4552433732313a207472616e73666572206f6620746f6b656e2074686174206960008201527f73206e6f74206f776e0000000000000000000000000000000000000000000000602082015250565b60006142ab602983613011565b91506142b68261424f565b604082019050919050565b600060208201905081810360008301526142da8161429e565b9050919050565b7f4552433732313a207472616e7366657220746f20746865207a65726f2061646460008201527f7265737300000000000000000000000000000000000000000000000000000000602082015250565b600061433d602483613011565b9150614348826142e1565b604082019050919050565b6000602082019050818103600083015261436c81614330565b9050919050565b600061437e826130c1565b9150614389836130c1565b92508282101561439c5761439b613c1d565b5b828203905092915050565b7f4552433732313a207472616e7366657220746f206e6f6e20455243373231526560008201527f63656976657220696d706c656d656e7465720000000000000000000000000000602082015250565b6000614403603283613011565b915061440e826143a7565b604082019050919050565b60006020820190508181036000830152614432816143f6565b9050919050565b7f4e487b7100000000000000000000000000000000000000000000000000000000600052601260045260246000fd5b6000614473826130c1565b915061447e836130c1565b92508261448e5761448d614439565b5b828204905092915050565b60006144a4826130c1565b91506144af836130c1565b9250826144bf576144be614439565b5b828206905092915050565b600081519050919050565b600082825260208201905092915050565b60006144f1826144ca565b6144fb81856144d5565b935061450b818560208601613022565b61451481613055565b840191505092915050565b60006080820190506145346000830187613156565b6145416020830186613156565b61454e6040830185613219565b818103606083015261456081846144e6565b905095945050505050565b60008151905061457a81612f77565b92915050565b60006020828403121561459657614595612f41565b5b60006145a48482850161456b565b91505092915050565b7f4e487b7100000000000000000000000000000000000000000000000000000000600052603160045260246000fd5b7f4552433732313a206d696e7420746f20746865207a65726f2061646472657373600082015250565b6000614612602083613011565b915061461d826145dc565b602082019050919050565b6000602082019050818103600083015261464181614605565b9050919050565b7f4552433732313a20746f6b656e20616c7265616479206d696e74656400000000600082015250565b600061467e601c83613011565b915061468982614648565b602082019050919050565b600060208201905081810360008301526146ad81614671565b905091905056fea2646970667358221220769fb43b12fcf5eb270a6f716fd622d8f30e8938aed4e8475e19975431bf125564736f6c634300080c0033",
  "immutableReferences": {},
  "source": "// SPDX-License-Identifier: MIT\n\npragma solidity ^0.8.0;\n\nimport \"@openzeppelin/contracts/access/Ownable.sol\";\nimport \"@openzeppelin/contracts/token/ERC721/extensions/ERC721Enumerable.sol\";\n\n/*\n      .\".\".\".\n    (`       `)               _.-=-.\n     '._.--.-;             .-`  -'  '.\n    .-'`.o )  \\           /  .-_.--'  `\\\n   `;---) \\    ;         /  / ;' _-_.-' `\n     `;\"`  ;    \\        ; .  .'   _-' \\\n      (    )    |        |  / .-.-'    -`\n       '-.-'     \\       | .' ` '.-'-\\`\n        /_./\\_.|\\_\\      ;  ' .'-'.-.\n        /         '-._    \\` /  _;-,\n       |         .-=-.;-._ \\  -'-,\n       \\        /      `\";`-`,-\"`)\n        \\       \\     '-- `\\.\\\n         '.      '._ '-- '--'/\n           `-._     `'----'`;\n               `\"\"\"--.____,/\n                      \\\\  \\\n                      // /`\n                  ___// /__\n                (`(`(---\"-`)\n*/\ncontract Zetasaurio is ERC721Enumerable {\n    using Strings for uint256;\n\n    address public owner;\n    address public manager;\n\n    string public baseURI = \"\";\n\n    uint256 public saleStart;\n    uint256 public presaleStart;\n    uint256 public constant maxSupply = 10000;\n    uint256 public constant batchMintLimit = 5;\n    uint256 public constant presaleMintPerAddressLimit = 2;\n\n    mapping(address => bool) public hasPresaleAccess;\n    mapping(address => uint256) public mintedPerAddress;\n\n    constructor(address _manager) ERC721(\"Zetasaurio\", \"ZS\") {\n        owner = msg.sender;\n        manager = _manager;\n    }\n\n    modifier onlyOwner() {\n        require(owner == msg.sender, \"Caller is not the owner\");\n        _;\n    }\n\n    /**\n     * @dev Base URI for computing {tokenURI} in {ERC721} parent contract.\n     */\n    function _baseURI() internal view virtual override returns (string memory) {\n        return baseURI;\n    }\n\n    function setBaseURI(string memory _newBaseURI) public onlyOwner {\n        baseURI = _newBaseURI;\n    }\n\n    function schedulePresale(uint256 _start) public onlyOwner {\n        presaleStart = _start;\n    }\n\n    function scheduleSale(uint256 _start) public onlyOwner {\n        saleStart = _start;\n    }\n\n    function presaleAlphaIsActive() public view returns (bool) {\n        return presaleStart <= block.timestamp && block.timestamp < (presaleStart + 129600);\n    }\n\n    function presaleBetaIsActive() public view returns (bool) {\n        return (presaleStart + 388800) <= block.timestamp && block.timestamp < (presaleStart + 518400);\n    }\n\n    function presaleGammaIsActive() public view returns (bool) {\n        return (presaleStart + 777600) <= block.timestamp && block.timestamp < (presaleStart + 907200);\n    }\n\n    function presaleIsActive() public view returns (bool) {\n        return presaleAlphaIsActive() || presaleBetaIsActive() || presaleGammaIsActive();\n    }\n\n    function saleIsActive() public view returns (bool) {\n        return saleStart != 0 && saleStart <= block.timestamp;\n    }\n\n    function cost() public view virtual returns (uint256) {\n        if (presaleAlphaIsActive()) return 0.04 ether;\n        if (presaleBetaIsActive()) return 0.05 ether;\n        if (presaleGammaIsActive()) return 0.06 ether;\n\n        return 0.08 ether;\n    }\n\n    function grantPresaleAccess(address[] calldata _users) public onlyOwner {\n        for (uint256 i = 0; i < _users.length; i++) {\n            hasPresaleAccess[_users[i]] = true;\n        }\n    }\n\n    function revokePresaleAccess(address[] calldata _users) public onlyOwner {\n        for (uint256 i = 0; i < _users.length; i++) {\n            hasPresaleAccess[_users[i]] = false;\n        }\n    }\n\n    function withdraw() public payable onlyOwner {\n        require(payable(manager).send(address(this).balance));\n    }\n\n    /**\n     * Reserve zetas for team and giveaways.\n     */\n    function reserve(uint256 _amount) public onlyOwner {\n        uint256 supply = totalSupply();\n\n        for (uint256 i = 1; i <= _amount; i++) {\n            _safeMint(msg.sender, supply + i);\n        }\n    }\n\n    function mint(uint256 _mintAmount) public payable {\n        uint256 supply = totalSupply();\n\n        require(saleIsActive() || presaleIsActive(), \"Sale is not active\");\n        require(_mintAmount > 0, \"Must mint at least one NFT\");\n        require(supply + _mintAmount <= maxSupply, \"Supply left is not enough\");\n        require(_mintAmount <= batchMintLimit, \"Can't mint these many NFTs at once\");\n        require(msg.value >= cost() * _mintAmount, \"Not enough funds to purchase\");\n\n        if (presaleIsActive()) {\n            require(hasPresaleAccess[msg.sender], \"Presale access denied\");\n            require(\n                mintedPerAddress[msg.sender] + _mintAmount < presaleMintPerAddressLimit,\n                \"Not enough presale mintings left\"\n            );\n        }\n\n        for (uint256 i = 1; i <= _mintAmount; i++) {\n            mintedPerAddress[msg.sender]++;\n            _safeMint(msg.sender, supply + i);\n        }\n    }\n}\n",
  "sourcePath": "/home/jose92/Projects/nft-toolbox/contracts/Zetasaurio.sol",
  "compiler": {
    "name": "solc",
    "version": "0.8.12+commit.f00d7308.Emscripten.clang"
  },
  "schemaVersion": "3.4.3",
  "updatedAt": "2022-03-09T19:30:53.345Z",
  "networkType": "ethereum",
  "devdoc": {
    "kind": "dev",
    "methods": {
      "approve(address,uint256)": {
        "details": "See {IERC721-approve}."
      },
      "balanceOf(address)": {
        "details": "See {IERC721-balanceOf}."
      },
      "getApproved(uint256)": {
        "details": "See {IERC721-getApproved}."
      },
      "isApprovedForAll(address,address)": {
        "details": "See {IERC721-isApprovedForAll}."
      },
      "name()": {
        "details": "See {IERC721Metadata-name}."
      },
      "ownerOf(uint256)": {
        "details": "See {IERC721-ownerOf}."
      },
      "safeTransferFrom(address,address,uint256)": {
        "details": "See {IERC721-safeTransferFrom}."
      },
      "safeTransferFrom(address,address,uint256,bytes)": {
        "details": "See {IERC721-safeTransferFrom}."
      },
      "setApprovalForAll(address,bool)": {
        "details": "See {IERC721-setApprovalForAll}."
      },
      "supportsInterface(bytes4)": {
        "details": "See {IERC165-supportsInterface}."
      },
      "symbol()": {
        "details": "See {IERC721Metadata-symbol}."
      },
      "tokenByIndex(uint256)": {
        "details": "See {IERC721Enumerable-tokenByIndex}."
      },
      "tokenOfOwnerByIndex(address,uint256)": {
        "details": "See {IERC721Enumerable-tokenOfOwnerByIndex}."
      },
      "tokenURI(uint256)": {
        "details": "See {IERC721Metadata-tokenURI}."
      },
      "totalSupply()": {
        "details": "See {IERC721Enumerable-totalSupply}."
      },
      "transferFrom(address,address,uint256)": {
        "details": "See {IERC721-transferFrom}."
      }
    },
    "version": 1
  },
  "userdoc": {
    "kind": "user",
    "methods": {
      "reserve(uint256)": {
        "notice": "Reserve zetas for team and giveaways."
      }
    },
    "version": 1
  }
}